:020000040800F2
:1000000000000220852E0008BD290008BF29000835
:10001000C1290008C3290008C52900080000000004
:10002000000000000000000000000000C7290008D8
:10003000C929000800000000CB290008CD290008CC
:10004000D52E0008D52E0008D52E0008D52E000884
:10005000D52E0008D52E0008D52E0008D52E000874
:10006000D52E0008D52E0008D52E0008D52E000864
:10007000D52E0008D52E0008D52E0008D52E000854
:10008000D52E0008D52E0008D52E0008000000004F
:10009000000000000000000000000000D52E000855
:1000A000D52E0008D1290008DD290008D52E00082A
:1000B000D52E0008E9290008D52E0008D52E000805
:1000C000D52E0008D52E0008D52E0008D52E000804
:1000D000D52E0008F5290008D52E000800000000E4
:1000E000D52E0008D52E0008D52E000800000000EF
:1000F000000000000000000000000000D52E0008F5
:1001000000000000D52E0008D52E0008D52E0008CE
:1001100000000000000000000000000000000000DF
:10012000D52E0008D52E0008D52E0008D52E0008A3
:10013000D52E0008000000000000000000000000B4
:10014000000000000000000000000000D52E0008A4
:10015000D52E0008D52E0008D52E0008D52E000873
:10016000012A0008D52E0008000000000000000051
:10017000000000000000000000000000000000007F
:1001800000000000D52E0008000000000000000064
:08019000D52E0008D52E000851
:1001980010B5054C237833B9044B13B10448AFF3B9
:1001A80000800123237010BD0C0000200000000017
:1001B800302F000808B5034B1BB103490348AFF3C0
:1001C800008008BD0000000010000020302F00084B
:1001D80053B94AB9002908BF00281CBF4FF0FF31A6
:1001E8004FF0FF3000F07AB9ADF1080C6DE904CE9C
:1001F80000F006F8DDF804E0DDE9022304B07047FA
:100208002DE9F0478C460D460446089E002B51D137
:100218008A4217466DD9B2FA82FEBEF1000F0BD0A2
:10022800CEF1200C01FA0EF520FA0CFC02FA0EF7BA
:100238004CEA050C00FA0EF44FEA174A250CBCFBF1
:10024800FAF81FFA87F90AFB18CC45EA0C4508FBAF
:1002580009F3AB420AD9ED1908F1FF3280F0238186
:10026800AB4240F22081A8F102083D44ED1AA4B245
:10027800B5FBFAF00AFB105544EA054400FB09F9FE
:10028800A14509D9E41900F1FF3380F00A81A1459D
:1002980040F2078102383C44A4EB090440EA0840D4
:1002A8000021002E61D024FA0EF40023346073601C
:1002B800BDE8F0878B4207D9002E54D0002186E88C
:1002C80021000846BDE8F087B3FA83F1002940F021
:1002D8008E80AB4202D3824200F2FA80841A65EB28
:1002E80003050120AC46002E3FD086E81010BDE87B
:1002F800F08712B90127B7FBF2F7B7FA87FEBEF10C
:10030800000F34D1EB1B3A0C1FFA87FC0121B3FB19
:10031800F2F8250C02FB183345EA03450CFB08F3F9
:10032800AB4207D9ED1908F1FF3002D2AB4200F217
:10033800D1808046ED1AA3B2B5FBF2F002FB10554E
:1003480043EA05440CFB00FCA44507D9E41900F175
:10035800FF3302D2A44500F2B8801846A4EB0C047F
:1003680040EA08409DE731463046BDE8F087CEF1C7
:10037800200405FA0EF307FA0EF720FA04F83A0CEF
:1003880025FA04F448EA0308B4FBF2F14FEA1845E9
:1003980002FB11441FFA87FC45EA044501FB0CF3F4
:1003A800AB4200FA0EF409D9ED1901F1FF3080F0E3
:1003B8008A80AB4240F2878002393D44EB1A1FFA2B
:1003C80088F5B3FBF2F002FB103345EA034500FB66
:1003D8000CF3AB4207D9ED1900F1FF386FD2AB42ED
:1003E8006DD902383D44EB1A40EA01418FE7C1F16B
:1003F800200722FA07F88B4005FA01F448EA0303BC
:1004080020FA07FE4FEA134CFD404EEA040EB5FBF6
:10041800FCF94FEA1E440CFB19551FFA83F844EA0D
:10042800054509FB08F4AC4202FA01F200FA01FAA8
:1004380008D9ED1809F1FF3043D2AC4241D9A9F1EE
:1004480002091D442D1B1FFA8EFEB5FBFCF00CFBA8
:1004580010554EEA054400FB08F8A04507D9E418F2
:1004680000F1FF3529D2A04527D902381C4440EABB
:100478000940A4EB0804A0FB02894C45C6464D463A
:1004880015D312D056B1BAEB0E0364EB050404FA87
:1004980007F7CB401F43CC40376074600021BDE8AC
:1004A800F0871846F8E69046E0E6C245EAD2B8EB8F
:1004B800020E69EB03050138E4E72846D7E7404612
:1004C80091E78146BEE7014678E702383C4445E7B4
:1004D800084608E7A8F102083D442BE7704700BF2B
:1004E80038B50E4A0E4B054618784FF47A73B3FBAD
:1004F800F0F31068B0FBF3F000F0F2F9044658B9D5
:100508000F2D09D8024629464FF0FF3000F0A6F912
:10051800044B20461D6038BD012038BD080000206E
:10052800000000200400002008B50B4B1A6842F4B4
:1005380000721A601A6842F480621A601A6842F4FB
:1005480080721A60032000F077F90020FFF7C8FFD7
:1005580002F014FA002008BD003C0240034A044B94
:1005680011681B780B441360704700BF28000020F7
:1005780000000020014B1868704700BF28000020C9
:1005880038B50446FFF7F6FF631C1CBF054B1B7804
:10059800054618BFE418FFF7EDFF401B8442FAD860
:1005A80038BD00BF0000002038B50446002800F020
:1005B8009B80056C25B902F037F8656484F83C50D7
:1005C800236CDB0600F18E80236C23F4885323F020
:1005D800020343F002032364444B5A6822F4403276
:1005E8005A605A6861680A435A60236821695A68E0
:1005F80022F480725A605A6842EA01225A605A68A4
:10060800A16822F040725A605A680A435A609A6890
:10061800E16822F400629A609A680A439A60344951
:10062800A26A8A4252D0996821F0706199609968EB
:100638000A439A609A68E16A22F040529A609A687E
:100648000A439A609A68217E22F002029A609A68A8
:1006580042EA41029A6094F82020002A3ED05A6863
:10066800616A42F400625A605A6822F460425A6031
:100678005A68013942EA41325A60DA6AE16922F479
:100688007002DA62DA6A013942EA0152DA629A6879
:1006980094F8301022F400729A609A6842EA412273
:1006A8009A609A68616922F480629A609A68002068
:1006B80042EA81229A606064236C23F0030343F0CA
:1006C80001032364002384F83C3038BD9A6822F083
:1006D80070629A609A6822F04052B2E75A6822F42F
:1006E8000062C9E70120EDE7012038BD0023014081
:1006F8000100000FF7B50023019390F83C30012B5F
:100708006ED00D6804688A680123092D80F83C3092
:10071800AEB22AD906EB4603E7681E3B4FF0070E38
:100728000EFA03FE27EA0E07E760E76802FA03F30A
:100738003B43E3604A68062A4FEA820325D81344FC
:10074800676B591F1F238B4027EA03036363626BA0
:1007580006FA01F111436163324B9C4234D0002305
:1007680080F83C30184603B0F0BD276905EB450317
:100778004FF0070E0EFA03FE27EA0E0727612769D6
:1007880002FA03F33B432361D4E70C2A0ED813443F
:10079800216BA3F123021F23934021EA0303236360
:1007A800236B06FA02F21A432263D5E71344E16A7F
:1007B800413B1F229A4021EA0202E262E26A06FAFB
:1007C80003F11143E162C7E7122D0BD1164B5A68AA
:1007D80022F400025A605A6842F480025A60BEE766
:1007E8000220C0E7114B9D4201D0112DB7D10E4B0D
:1007F8005A6822F480025A605A6842F400025A6029
:100808000A4B9D42ABD10A4B0A4A1B68B3FBF2F272
:100818000A2353430193019B002BA0D0019B013B6A
:10082800F8E700BF0020014000230140120000103B
:100838000800002040420F00074AD36823F4E06311
:100848001B041B0C43F0BF63000243F4003300F4A5
:10085800E0600343D360704700ED00E0174B30B50C
:10086800DC68C4F30224C4F10703251D042B28BF48
:100878000423062D4FF0010505FA03F303F1FF33B6
:100888008CBF033C00241940A14005FA04F4013C44
:100898002240002842EA01024FEA0212ADBF00F1ED
:1008A800604000F00F00064B00F56140B5BFD2B2C2
:1008B800D2B21A5480F8002330BD00BF00ED00E02A
:1008C80014ED00E0002808DB4209012300F01F00B6
:1008D80003FA00F0014B43F82200704700E100E002
:1008E8000138B0F1807F0AD2064B074A5860F021E0
:1008F80082F823100020072298601A6070470120B0
:10090800704700BF10E000E000ED00E090F83530DF
:10091800022B03D08023436501207047026805231A
:1009280080F83530136823F0010313600020704706
:1009380090F83500704700002DE9F04F85B00B683E
:10094800DFF88C81604A01934FF001090023019D73
:1009580009FA03F42540AC4240F0A6804C6824F024
:10096800100C0CF1FF36012E4FEA430E12D887689F
:10097800032606FA0EF627EA0607CE6806FA0EF6EA
:100988003E4386604768C4F3001627EA05079E4081
:100998003E4346600326C76806FA0EF6F64307EAA2
:1009A800060A8F6807FA0EF747EA0A07BCF1020F32
:1009B800C76016D14FEAD30A00EB8A0A03F0070B87
:1009C800DAF820704FEA8B0B4FF00F0C0CFA0BFC87
:1009D80027EA0C0C0F6907FA0BF747EA0C07CAF865
:1009E800207007683E4004F0030707FA0EFE4EEA3F
:1009F80006060660E60057D54FF0000BCDF80CB0A0
:100A0800D8F84470314E47F48047C8F84470D8F895
:100A1800447007F480470397039F23F0030707F107
:100A2800804707F59C3703F0030CD7F808A04FEA76
:100A38008C0C4FF00F0E0EFA0CFEB0422AEA0E0E86
:100A480039D006F58066B04237D006F58066B042E8
:100A580035D006F58066B04233D006F58066B042E0
:100A680014BF0726042606FA0CF646EA0E06BE60F0
:100A78001668EF4314F4803F0CBF3E402E431660C7
:100A8800566814F4003F0CBF3E402E4356609668EB
:100A980014F4801F0CBF3E402E439660D668A40213
:100AA80054BF3E402E43D6600133102B7FF44FAF26
:100AB80005B0BDE8F08F5E46D5E70126D3E70226EC
:100AC800D1E70326CFE700BF003C01400000024009
:100AD800003802400AB1816170470904FBE7036DE1
:100AE80083B9C36C0268012B836C05D1DBB2136137
:100AF800036D023303657047C3F307231361036D66
:100B08000133F7E7036D012B03D1836C0268DBB275
:100B1800F4E7036D022B17D190F83D30222B05D155
:100B28000268136843F480731360704790F83D308F
:100B3800212B09D1436A026813F8011B1161436232
:100B4800438D013B9BB243857047000070B5044656
:100B580008B9012070BD90F83D3003F0FF021BB9C1
:100B680080F83C2001F02AFE242384F83D302368D5
:100B78001A6822F001021A601A6842F400421A60E8
:100B88001A6822F400421A6000F0F4FF6568414BCD
:100B98009D424DD8404B9842DBD922683F49536863
:100BA800B0FBF1F123F03F030B435360136A23F0CA
:100BB8003F03013119431162D169364B21F44F418A
:100BC8009D4221F0FF0100F1FF3048D86D00B0FBD5
:100BD800F5F00130C0F30B03042B38BF04230B439B
:100BE800D3611168206AE36921F0C00103430B4314
:100BF80013609168E068236921F40341034321F0FD
:100C0800FF010B439360D168A069636921F0FF017C
:100C180003430B43D360136843F0010313600020C0
:100C28002023206484F83D30206384F83E0070BDA2
:100C38001B4B98428DD92268184E5368B0FBF6F6C4
:100C480023F03F0333435360136A4FF496717143A3
:100C580023F03F034FF47A76B1FBF6F1A9E7A368D6
:100C680053B905EB4503B0FBF3F0431CC3F30B0387
:100C78006BB143F40043B2E719236B43B0FBF3F0C5
:100C8800431CC3F30B0313B143F44043A7E7012309
:100C9800A5E700BFA08601007F841E0040420F0028
:100CA800FF083D00704770477047704770477047AE
:100CB8007047704770477047806B38B590F83D2093
:100CC800456BD2B20DB10023EB63846B0CB10023EA
:100CD800E3630368196821F4806119600021418584
:100CE80005B1296504B12165196821F00101196070
:100CF80090F83D10602909D1202380F83D30002369
:100D080080F83E300364FFF7D6FF38BD02F02802B2
:100D1800282A0ED1196841F001011960196841F4B7
:100D2800806119600023036380F83D20FFF7C2FF4C
:100D380038BD202380F83D30002380F83E30F5E7A9
:100D480090F83D2090F83E30102B10B5D2B20446F2
:100D5800036805D1222A02BF196821F400611960CD
:100D680002F0280128293DD10022226384F83D1091
:100D78005A6812F400625CD05A68606B22F4006210
:100D88005A6090F83530012B3D4B38D00365FFF79A
:100D9800BDFD50B12268606B136823F00103136036
:100DA800202384F83D30036D9847236C19071FBF33
:100DB8002268536823F4E063536094F83D30226C52
:100DC8005207DBB20DD5282B0BD12E4BE362202224
:100DD80000232363204684F83D2084F83E30FFF743
:100DE80066FF10BD5968080504D4602A1CBF20227C
:100DF80084F83D200022226384F83E20B8E7A06BE7
:100E08000365FFF783FD0028CFD023685A69510690
:100E180005D5626A1B691370636A013363622268CD
:100E2800A06B136823F001031360202384F83D307E
:100E3800B9E794F83D10602915D1202184F83D10B8
:100E480022645A69520605D5626A1B691370636A7F
:100E5800013363622268136823F00103136020469C
:100E6800FFF729FFA1E75A69500605D5626A1B6991
:100E78001370636A013363622046FFF71BFF94E730
:100E8800C10C00080000FFFF036830B55A68C56A46
:100E980090F83E100446C9B290F83D0010298DB074
:100EA800C0B202D0402940F0A0829869596911F077
:100EB800010F07D1B5F52A0F02D0B5F12A4F50D14D
:100EC8000DB030BD95054CD5E26AB2F52A0F0CD1AC
:100ED8000122E26294F83E20402A11D1226D52B9D3
:100EE800626C02F0FE021A61EAE7E26AB2F12A4F86
:100EF800F0D10822EDE7626C42F00102D2B2F2E7CB
:100F08002269B2F5804F19D194F83D20212A626CEC
:100F180016BF42F0010202F0FE02D2B21A61626B01
:100F28000AB1D26B2AB9A26B002AC9D0D26B002AA7
:100F3800C6D05A6842F400625A60C1E7226D32B9DD
:100F4800626CD21102F0060242F0F002CBE7226D89
:100F5800012AB5D1626CD21102F0060242F0F10208
:100F6800C1E70D070ED595050CD5626CD2B21A6192
:100F7800626B12B9A16B0029A2D0D26B002AD8D11A
:100F8800A26BD3E78D0740F1E180950540F1DE8043
:100F980094F83E10E26A256B94F83D002228C9B205
:100FA80040F0CC80206D40B9402906D101905A69A3
:100FB80001929B690193019B82E7216D89B92069A0
:100FC800B0F5404F0DD102915A6902929A69029286
:100FD800029A1A6842F480721A60236D01332365FD
:100FE8006EE7618D89B251B903915A6903929A6982
:100FF8000392039A1A6842F400721A6019E0618D2C
:1010080089B2012949D112F5803F1BD11A6822F40F
:1010180080621A605A6812F400620CD01A6822F4CE
:1010280080621A60002204925A6904929B690493B0
:10103800049B0023D3E705925A6905929A690592A1
:10104800059AD7E7082A1CD0202A1AD0122D0DD1CC
:10105800012A16D11A6822F480621A6000220692C8
:101068005A6906929B690693069BE2E7102AF1D813
:10107800934921FA02F2D007ECD51A6842F480624B
:10108800EBE71A6822F480621A60002207925A6914
:1010980007929A690792079AACE7618D89B202298B
:1010A8002CD1102A03D88649D140C90722D41968FF
:1010B80021F480611960196841F400611960596868
:1010C8000D050FD512F5803F08D0511E1F299DBF71
:1010D8007C4ACA40D2430122D00703D45A6842F45A
:1010E80080525A60002208925A6908929B690893B4
:1010F800089B9EE7196841F48061DFE7196841F4AD
:10110800806119605968090510D512F5803F09D02A
:10111800013A1F2A9DBF6B4921FA02F2D2430122EC
:10112800D20703D45A6842F480525A6000220992C6
:101138005A6909929B690993099B7AE700220A92E6
:101148005A690A929B690A930A9BB9E610F0040F40
:10115800586800F08A8005053FF5B2AE11F0800F9F
:1011680001F004013CD050053AD5002938D194F853
:101178003D20258D94F83E10E06AD2B2C9B2C5B9B7
:10118800212A18D1082853D0202851D010F5803FA3
:101198004ED05A6822F4E0625A6011232363002378
:1011A80084F83E30202384F83D302046FFF77AFD4E
:1011B80086E6212A05D040297FF482AE222A7FF4D0
:1011C8007FAE628D92B21AB95A6822F48062B3E691
:1011D80094F83E20402A11D12046FFF780FC6FE6A4
:1011E80000293FF46DAE92057FF56AAEE16A94F886
:1011F8003D20212A33D1628D92B24AB1626A12F837
:10120800011B19616262638D013B9BB2638557E6DE
:1012180008290DD020290BD011F5803F08D0596836
:1012280021F4E06159601123236384F83E20B9E773
:101238005A6822F4E0625A601A6842F400721A602E
:1012480000232022236384F83D2094F83E2084F86C
:101258003E30402A2046A9D1FFF72AFD30E694F80F
:101268003E30402B7FF42CAEB6E705053FF528AE9F
:1012780011F0400F01F004014DD050054BD5002965
:1012880049D194F83D20222A7FF41AAE628D92B299
:10129800032A19D9626A1B691370636A013363628E
:1012A800638D013B9BB26385638D9BB2032B7FF4F7
:1012B80007AE2268536823F48063536000E600BFDA
:1012C8001400010081800080E06A02283FF4F8AD34
:1012D800012A3FF6F5AD1A6822F480621A605A684E
:1012E80022F4E0625A60626A1B691370636A013310
:1012F8006362638D013B9BB26385202384F83D3094
:1013080094F83E3084F83E10402B68D12163204683
:10131800FFF7CFFCD4E500293FF4D2AD92057FF565
:10132800CFADE26A618D89B20429616A09D15A6830
:1013380022F480625A601B690B70636A013363622E
:1013480061E7608D80B203280CD15868042A20F424
:1013580080605860EFD0022AEDD01A6822F48062CB
:101368001A60E8E7608D80B20228E4D1012A01D032
:10137800102A28D11A6822F480621A601B690B703F
:10138800626A531C6362638D013B9BB26385236869
:101398001B695370636A226801336362638D013B82
:1013A8009BB26385536823F440735360202384F809
:1013B8003D3094F83E30402B4FF0000384F83E3027
:1013C8000DD12363A3E7042A01D0022A03D11A68A6
:1013D80042F48062D1E71A6842F40072CDE7122322
:1013E80023632046FFF75FFC6AE5216C21B3596946
:1013F800002511F0020F29D012F4007F26D0226CAC
:1014080002B19D6994F83D2002F02802282A16D1DD
:101418005A6822F480625A6085F004012B064FF066
:101428000003C1F3800154BFA289228B84F83C30A9
:101438002046FFF73BFC43E59D695969D9E76FF002
:1014480002025A61002384F83C3039E5CD0640F1A8
:10145800AF80950540F1AC8094F83D505A6822F46D
:10146800E0625A6000220B925A690B921A6842F0A5
:1014780001021A600B9A1A6822F480621A605A688C
:101488001105EDB220D505F0F702222A48D1A06B4C
:101498000268526892B26285628D92B21AB1226C69
:1014A80042F0040222645A6822F400625A60FFF78C
:1014B8003FFA012808D0A06B784B0365FFF726FA9E
:1014C80010B1A06B036D9847638D9BB213B323686B
:1014D8005A69520709D5626A1B691370636A013336
:1014E8006362638D013B9BB2638523685A6950062A
:1014F80009D5626A1B691370636A01336362638D7D
:10150800013B9BB26385638D9BB21BB1236C43F097
:1015180004032364236C03B32046FFF711FCCFE4D4
:10152800606B0268526892B26285628D92B21AB19B
:10153800226C42F0040222645A6822F400625A6063
:10154800FFF7F6F90128BFD0606B544B0365FFF72E
:10155800DDF90028B8D0606BB4E72A2D06D12363E3
:10156800282384F83D302046FFF79FFB94F83D3050
:10157800282B0CD14A4BE362202200232363204608
:1015880084F83D2084F83E30FFF791FB98E4236B04
:10159800222B02D0222D7FF493AC00232022236338
:1015A80084F83D2084F83E302046FFF77EFB87E430
:1015B80000F0F700212801F0040535D1090627D5E8
:1015C800510525D525BB94F83D10628D92B2C9B25C
:1015D800002A3FF475AC626A12F8015B1D61626211
:1015E800628D013A92B26285628D92B2002A7FF4CE
:1015F80067AC29297FF464AC5A6822F480625A6087
:101608002823206384F83D302046FFF74DFB57E43C
:10161800002D3FF455AC95057FF552AC628D92B222
:10162800002A7FF4EBAD4BE4480627D5510525D5B4
:1016380025BB94F83D20618D89B2D2B200293FF4D0
:101648003FAC616A1B690B70636A01336362638D27
:10165800013B9BB26385638D9BB2002B7FF430AC5A
:101668002A2A7FF42DAC2268536823F480635360E0
:1016780022232363282384F83D3095E7002D3FF487
:101688001FAC92057FF51CAC628D92B2002A3FF424
:1016980017AC626A1B6913704FE600BFC10C0008E3
:1016A8000000FFFF2DE9F341044608B901203FE09F
:1016B8000368DD0710D4236898075AD423681A07EB
:1016C80000F19C8023685B0700F1BA80A0690028BC
:1016D80040F01B8100202BE0A44B9A6802F00C021A
:1016E800042A07D09A6802F00C02082A0AD15B681B
:1016F800590207D59D4B1B689A03DCD56368002BFC
:10170800D9D1D3E76368994DB3F5803F13D12B68DE
:1017180043F480332B60FEF72DFF944D06462B686B
:101728009B03C8D4FEF726FF801B6428F7D9032043
:1017380002B0BDE8F081B3F5A02F04D12B6843F4C3
:1017480080232B60E3E72A6822F480322A602A6823
:1017580022F480222A60002BDDD1FEF70BFF06461B
:101768002B689F03A7D5FEF705FF801B6428F7D9D0
:10177800DDE77E4B9A6812F00C0F07D09A6802F0EA
:101788000C02082A11D15B685E020ED4774B1A68E6
:10179800950702D5E268012A88D11A68216922F0E2
:1017A800F80242EAC1021A6088E7E268704BB2B1F7
:1017B80001221A60FEF7DEFE6C4D06462B6898077C
:1017C80007D52B68226923F0F80343EAC2032B608C
:1017D80074E7FEF7CFFE801B0228EFD9A7E71A604F
:1017E800FEF7C8FE614D06462B6899077FF566AF80
:1017F800FEF7C0FE801B0228F6D998E762695D4BA8
:101808007AB101221A60FEF7B5FE584D06466B6F95
:101818009F073FF557AFFEF7ADFE801B0228F6D9AC
:1018280085E71A60FEF7A6FE504D06466B6F9807CF
:101838007FF548AFFEF79EFE801B0228F6D976E7B3
:101848004A4B1A6C12F0805228D101921A6C42F05D
:1018580080521A641B6C03F080530193019B01268C
:10186800454D2B68D9051BD5A368404D012B27D1C1
:101878002B6F43F001032B67FEF77CFE3B4D0746B9
:1018880041F288382B6F9B0739D5002E3FF41EAFE5
:10189800364A136C23F08053136417E70026DFE7FA
:1018A8002B6843F480732B60FEF764FE07462B68B1
:1018B800DA05D9D4FEF75EFEC01B0228F7D936E751
:1018C800052B04D12B6F43F004032B67D0E72A6F55
:1018D80022F001022A672A6F22F004022A67002BED
:1018E800CAD1FEF747FE41F2883807462B6F9807A2
:1018F800CBD5FEF73FFEC01B4045F7D917E7FEF7EB
:1019080039FEC01B4045BDD911E7184DAB6803F03F
:101918000C03082B47D0194E00230228336035D119
:10192800FEF728FE07462B68990129D4226AE36945
:101938001343626A43EA8213E26A43EA0263A26AD1
:101948000A4C5208013A43EA02436B6001233360B0
:10195800FEF710FE054623689A013FF5BBAEFEF779
:1019680009FE401B0228F6D9E1E600BF0038024014
:1019780000004742800E4742007000406000474226
:10198800FEF7F8FDC01B0228CDD9D0E6FEF7F2FD20
:1019980004462B689B017FF59DAEFEF7EBFD001B0F
:1019A8000228F6D9C3E601283FF4C2AEA868E36965
:1019B80000F480029A427FF479AE226A00F03F0375
:1019C80093427FF473AE626A47F6C0730340934252
:1019D8007FF46CAEA26A00F4403393427FF466AEA3
:1019E800E36A00F07060C01A18BF0120A0E600BFCB
:1019F800104908B58B6803F00C03082B18D14A6806
:101A08004B6849680C4813F48003C1F3881118BF68
:101A1800002302F03F02A1FB0001FEF7D9FB054BB2
:101A28005B68C3F3014301335B00B0FBF3F008BD0F
:101A3800014808BD003802400024F4002DE9F041B7
:101A48000D46044610B90120BDE8F081444B1A68E0
:101A580002F00F028A4229D321688F072ED4C807C3
:101A680041D43F4B1A6802F00F02954267D32268AF
:101A780051076DD4130707D53A4A2169936823F4AF
:101A8800604343EAC1039360FFF7B2FF354B364A20
:101A98009B68C3F30313D35CD840344B1860344BB2
:101AA8001868FEF71DFD0020BDE8F081CAB21A7063
:101AB8001B6803F00F039942C5D1CDE7294B11F0FC
:101AC800040F1EBF9A6842F4E0529A600E0742BFA4
:101AD8009A6842F460429A609A68A06822F0F0021C
:101AE80002439A60BBE762681E4B012A1DD11B683E
:101AF80013F4003FA7D01B4EB36823F0030313432E
:101B0800B360FEF737FD41F288380746B36862686C
:101B180003F00C03B3EB820FA3D0FEF72BFDC01B21
:101B28004045F3D90320BDE8F081911E01291B68C7
:101B380002D813F0007FDDE713F0020FDAE7EAB20C
:101B48001A701B6803F00F039D427FF47CAF8EE789
:101B58000449E0688B6823F4E05303438B6089E70A
:101B6800003C024000380240552F000808000020C1
:101B780004000020044B054A9B68C3F38223D35C0E
:101B8800034A1068D840704700380240652F0008A3
:101B980008000020044B054A9B68C3F34233D35C1A
:101BA800034A1068D840704700380240652F000883
:101BB80008000020036A23F001030362036A70B57A
:101BC800446882690D6822F073022A438D6823F005
:101BD80002032B430A4DA8420BD1CD688E6923F02E
:101BE80008032B434D6924F44074354323F0040360
:101BF8002C43446082614A684263036270BD00BF3F
:101C080000000140036A23F480730362036A70B51D
:101C18004468C2690D6822F073022A438D6823F470
:101C2800007343EA05230B4DA8420DD1CD688E6998
:101C380023F4006343EA05234D6924F440543543F3
:101C480023F4806344EA05144460C2614A68C263AD
:101C5800036270BD00000140036A23F480530362ED
:101C6800036A30B54468C2690D6822F4E64242EA64
:101C780005228D6823F4005343EA0533064DA84234
:101C880002BF4D6924F4804444EA85144460C2616B
:101C98004A680264036230BD000001407047704723
:101CA800704770477047704703681A69910710B505
:101CB80004460ED5DA6892070BD56FF002021A6156
:101CC8009B6901229B07027777D0FFF7EAFF002381
:101CD800237723681A69500710D5DA6851070DD59C
:101CE8006FF004021A619B69022213F4407F227785
:101CF800204668D0FFF7D5FF0023237723681A69A9
:101D080012070FD5DA6810070CD56FF008021A61B0
:101D1800DB6904229907227720465AD0FFF7C1FFD2
:101D28000023237723681A69D20610D5DA68D0060B
:101D38000DD56FF010021A61DB69082213F4407F99
:101D4800227720464BD0FFF7ACFF00232377236888
:101D58001A69D10708D5DA68D20705D56FF00102EC
:101D68001A612046FFF79BFF23681A69100608D5F9
:101D7800DA68110605D56FF080021A61204600F076
:101D88006AFA23681A69520608D5DA68500605D532
:101D98006FF040021A612046FFF785FF23681A6931
:101DA800910622D5DA6892061FD56FF020022046E8
:101DB8001A61BDE8104000F04DBAFFF771FF2046E8
:101DC800FFF770FF83E7FFF76BFF2046FFF76AFF17
:101DD80092E7FFF765FF2046FFF764FFA0E7FFF7EC
:101DE8005FFF2046FFF75EFFAFE710BD244A036898
:101DF80090420ED0B0F1804F0BD0A2F57C429042B9
:101E080007D002F58062904203D002F580629042CA
:101E180015D14A6823F070031343194A904219D028
:101E2800B0F1804F16D0A2F57C42904212D002F554
:101E3800806290420ED002F5806290420AD0114A28
:101E4800904207D002F58062904203D002F580628A
:101E5800904203D1CA6823F4407313434A6923F0BC
:101E68008003134303608B68C3620B688362044B6F
:101E7800984204BF0B69036301234361704700BFA5
:101E8800000001400040014010B50446A0B190F8A0
:101E98003D3003F0FF021BB980F83C2000F0C4FE7F
:101EA800022384F83D302068211DFFF79FFF01239E
:101EB80084F83D30002010BD012010BD10B5044647
:101EC800A0B190F83D3003F0FF021BB980F83C2028
:101ED800FFF7E4FE022384F83D302068211DFFF758
:101EE80085FF012384F83D30002010BD012010BD7E
:101EF800F8B50C460546002843D090F83D3003F06D
:101F0800FF021BB980F83C2000F020FE294602237E
:101F180051F8040B85F83D30836823F4804323F09F
:101F280007038360FFF762FF286823688668826971
:101F3800A168076A1E43A36922F4407222F00302D3
:101F480041EA0323134323F47C422369E1691B011B
:101F580043EA0123E1680B43216A22F0FC0243EAC9
:101F680001331343616927F0AA026768866047EA6C
:101F78000117836117430123076285F83D3000206C
:101F8800F8BD0120F8BD0000036A23F010030362C6
:101F9800036A70B5446882690D6822F4E64242EA31
:101FA80005228D6823F0200343EA05130B4DA84250
:101FB8000DD1CD688E6923F0800343EA05134D697E
:101FC80024F44064354323F0400344EA8504446024
:101FD80082614A688263036270BD00BF00000140ED
:101FE80038B590F83C30012B04464FF0020025D05C
:101FF800012384F83C3084F83D000C2A18D8DFE827
:1020080002F0071717171E1717172F171717400073
:102018002068FFF7CFFD236809699A6942F0080232
:102028009A619A6922F004029A619A690A439A614C
:102038000123002084F83D3084F83C0038BD206836
:10204800FFF7A2FF236809699A6942F400629A615E
:102058009A6922F480629A619A6942EA0122E6E763
:102068002068FFF7CFFD23680969DA6942F00802A2
:10207800DA61DA6922F00402DA61DA690A43DA61BC
:10208800D6E72068FFF7E8FD23680969DA6942F4B2
:102098000062DA61DA6922F48062DA61DA6942EAB6
:1020A8000122ECE710B584680A4324F47F4442EA2D
:1020B80003232343836010BD90F83C30012B70B597
:1020C80004464FF0020019D084F83D00206801232F
:1020D80084F83C30836823F47F4323F077038360DC
:1020E8000B68402B65D015D8102B0CD007D853B1EE
:1020F8000123002084F83D3084F83C0070BD202B7B
:1021080001D0302BF4D1826843F0070322F070022B
:1021180013431AE0602B34D019D8502BE8D14A6801
:10212800CE68016A056A25F001050562836921F018
:102138000A0123F0F00343EA06130A4383610262AB
:10214800836823F0700343F057038360D0E7702B54
:102158000CD0B3F5005FCBD1CB684A688968FFF72C
:10216800A1FF2268936843F4804308E0CB684A687B
:102178008968FFF797FF2268936843F077039360B5
:10218800B6E74D68CE68016A21F0100101628269E4
:10219800036A22F4704223F0A00343EA051342EADB
:1021A800063282610362836823F0700343F0670399
:1021B800CBE74A68CE68016A056A25F00105056221
:1021C800836921F00A0123F0F00343EA06130A4366
:1021D80083610262836823F0700343F04703B4E726
:1021E80090F83C30012B30B54FF002032DD080F829
:1021F8003D3003680D685C6824F0700401222C43AC
:1022080080F83C209A685C60114CA34212D0B3F16C
:10221800804F0FD0A4F57C44A3420BD004F5806412
:10222800A34207D004F58064A34203D004F59A348E
:10223800A34204D1496822F080020A439A6001232C
:1022480080F83D30002380F83C30184630BD00BF90
:1022580000000140704770470368DA6822F4907202
:10226800DA605A6922F001025A61202380F83A3074
:102278007047000038B50368C1681A69044622F43B
:1022880040520A431A612569A268D968C0692A437D
:10229800656921F416412A4321F00C0102430A43DF
:1022A800DA605A69A16922F440720A43B0F5004F16
:1022B8005A61254A29D1934203D002F5806293429C
:1022C80020D1FFF767FC6268256892184FF0000379
:1022D8004FF019015B41A0FB0101FDF779FF642173
:1022E800B0FBF1F401FB1403DB003233B3FBF1F371
:1022F80003F007025B0002EB041203F4F8731344C3
:10230800AB6038BDFFF736FCDDE7934202D00F4AD9
:10231800934216D1FFF73EFC6368256819219A009D
:10232800A0FB01019B0FFDF753FF6422B0FBF2F104
:1023380002FB11031B013233B3FBF2F303EB01136E
:10234800DEE7FFF717FCE7E7001001400014014043
:1023580010B5044640B390F8393003F0FF021BB9BA
:1023680080F8382000F04CFD2268242384F83930A6
:10237800D36823F40053D3602046FFF77BFF23681C
:102388001A6922F490421A615A6922F02A025A61A3
:10239800DA6842F40052DA6000202023E06384F80F
:1023A800393084F83A3010BD012010BD90F839302A
:1023B800202B18D1A9B1A2B190F83830012B12D036
:1023C800C2840162828400230168C363212280F8E9
:1023D8003920CA6880F8383042F08002CA6018464E
:1023E800704701207047022070477047704790F887
:1023F8003A30222B10B536D1836801690268B3F5EB
:10240800805F836A23D15268E9B9C2F3080223F8CE
:10241800022B8362C48D013CA4B2C4858CB90368C5
:10242800DA6822F02002DA60DA6822F48072DA6070
:102438005A6922F001025A61202380F83A30FFF7E6
:10244800D5FF002010BDD2B223F8012BE1E721B956
:10245800591C526881621A70DCE75268591C816203
:1024680002F07F02F7E7022010BD704703681A6880
:10247800D96870B5160704465D6907D196065CD51C
:102488008D065AD5BDE87040FFF7B1BF15F00105BC
:1024980002D111F4907F50D0D00705D5CB0542BFAB
:1024A800E36B43F00103E363560704D51DB1E36B07
:1024B80043F00203E363900704D51DB1E36B43F0D7
:1024C8000403E363130706D58E0600D41DB1E36B3E
:1024D80043F00803E363E36B002B66D0950604D54D
:1024E800880602D52046FFF782FF23685D69E26B04
:1024F8001107204602D415F040051AD0FFF7ACFEAC
:1025080023685A69520610D55A69606B22F0400256
:102518005A6150B1254B0365FEF7F8F9002844D0FD
:10252800606BBDE87040036D18472046FFF79DFFBC
:1025380070BDFFF79AFFE56370BD160627D50D0637
:1025480025D594F83920212A2FD1A268B2F5805FC9
:10255800226A17D11188C1F308015960216979B934
:1025680002322262E28C013A92B2E284EAB9DA6873
:1025780022F08002DA60DA6842F04002DA6070BD68
:102588000132EEE7511C216212785A60EAE75006E0
:102598000BD54A0609D5DA6822F04002DA60202312
:1025A80084F839302046FFF720FF70BDB9250008B0
:1025B80008B5806B0023C385C384FFF756FF08BDA9
:1025C8001FB510220021684600F0A6FC1348144BE2
:1025D800144A82624FF4803480E8180000230124F2
:1025E80083600361037680F82030C362C360C461EE
:1025F80080F830304461FDF7D7FF08B100F0BCF92E
:1026080008238DE818006946002304480293FEF762
:1026180071F808B100F0B0F904B010BD2C0000202A
:10262800002001400100000F10B5044688B01422B4
:10263800002103A800F070FC2268114B9A421DD1BA
:1026480003F58C33002101915A6C0E4842F48072D4
:102658005A645A6C02F480720192019A02911A6BC0
:1026680042F002021A631B6B03F002030293029BFF
:1026780003A9032303930493FEF75EF908B010BD82
:1026880000200140000402402DE9F04114228AB0E4
:102698000DEB0200002100F03FFC0024334B0194B5
:1026A8001A6BDFF8D480324F324D42F080021A6341
:1026B8001A6B02F080020192019A02941A6B42F09E
:1026C80004021A631A6B02F004020292029A03943B
:1026D8001A6B42F001021A631A6B02F001020392AC
:1026E800039A04941A6B42F002021A631B6B03F0FC
:1026F8000203049322464046E021049BFEF7EAF9D0
:10270800224638464EF2F011FEF7E4F922462846F2
:102718004FF48071FEF7DEF90F2305A9284601263C
:10272800059306940794FEF707F9E02305A94046A8
:102738000593069607940894FEF7FEF84EF2F013F8
:1027480005A938460593069607940894FEF7F4F809
:102758004FF4807305A928460593069607940894B4
:10276800FEF7EAF80AB0BDE8F08100BF0038024081
:1027780000040240000802400000024008B50C486E
:102788000C4BDFF834E04FF4804280E80840002327
:102798008360C360026143618361C3610362FEF7C2
:1027A800D5F918B1BDE8084000F0E6B808BD00BF8B
:1027B80074000020005C0040A08601002DE9F04371
:1027C800044689B01422002103A800F0A5FB226862
:1027D800264B9A4247D1264C264800250095236B64
:1027E80043F004032363236B03F004030093009B6B
:1027F8000195236B43F001032363236B03F001036B
:102808000193019B4FF012094FF400734FF0010838
:102818000327042603A90393CDF81090CDF814805C
:1028280006970796FEF788F84FF4807303A91248B5
:102838000393CDF81090CDF8148006970796FEF70D
:102848007BF80295236C43F400032364236C03F4A0
:102858000003029348202A462946029BFDF7FEFF03
:102868004820FEF72FF809B0BDE8F083005C00406F
:1028780000380240000802400000024030B595B020
:102888003022002108A800F047FB0021142203A8E9
:1028980000F042FB00241B4B01941A6C42F080525A
:1028A8001A641B6C03F080530193019B164B02942E
:1028B8001A6842F440421A601B680F9403F44043BC
:1028C8000293029B01230B9310230C93082310936C
:1028D80064230225119308A80423139308950E95E1
:1028E8001295FEF7DFFE0F23039303214FF4805365
:1028F80003A80495059406930794FFF79FF815B06D
:1029080030BD00BF003802400070004010B5FDF730
:102918000BFEFFF7B3FFFFF7B7FE00F055FA00F024
:102928007FF800F0ADF8FFF74BFEFFF727FF00F048
:10293800F3F900F0F1F800F0D5F80C4C00228021F2
:102948002046FEF7C7F840F24D10FDF719FE0D229C
:1029580007490848FFF72AFD204601228021FEF793
:10296800B9F840F24D10FDF70BFEE7E70000024012
:10297800482F0008080200207047000082B00C4B66
:10298800002100915A6C42F480425A645A6C02F455
:1029980080420092009A01911A6C42F080521A64A7
:1029A8001B6C03F080530193019B02B0704700BF7A
:1029B800003802407047FEE7FEE7FEE7FEE7704793
:1029C80070477047FDF7CABD0148FFF76DB900BFF2
:1029D800C80000200148FFF767B900BF8801002040
:1029E8000148FFF761B900BF480100200148FFF71F
:1029F8003DBD00BF080200200148FEF745BA00BFF0
:102A080074000020054BD3F8882042F47002C3F804
:102A180088204FF000629A60704700BF00ED00E028
:102A280010B58CB02422002103A800F075FA1348D1
:102A380000244FF0804380E818004FF6FF73C3600E
:102A480003230122039303A90F23019402948460B2
:102A5800046184610592079309920B93FFF748FA82
:102A680008B1FFF789FF01A9044801940294FFF710
:102A7800B7FB08B1FFF780FF0CB010BDC8010020FC
:102A880010B58CB02422002103A800F045FA1348A1
:102A9800134B002480E818004FF6FF73C36003232C
:102AA8000122039303A90F23019402948460046113
:102AB80084610592079309920B93FFF719FA08B1FD
:102AC800FFF75AFF01A9054801940294FFF788FB14
:102AD80008B1FFF751FF0CB010BD00BF080100207E
:102AE800000C00400A480B4908B5482380E80A0052
:102AF80042F2107200238360C26003618361FFF7B2
:102B0800C3F918B1BDE80840FFF736BF08BD00BFDC
:102B1800C8000020004401400A480B4908B5482372
:102B280080E80A0042F2107200238360C2600361E9
:102B38008361FFF7A9F918B1BDE80840FFF71CBF8A
:102B480008BD00BF880100200048014070B514226C
:102B58008AB0044600210DEB020000F0DDF923687D
:102B6800B3F1804F37D103F50E33002400941A6C6B
:102B7800294842F001021A641A6C02F0010200921C
:102B8800009A01941A6B42F001021A631A6B02F060
:102B980001020192019A02941A6B42F002021A632E
:102BA8001B6B03F002030293029B02264FF40043BF
:102BB800012505A9059306960995FDF7BDFE08238D
:102BC80016480593069607940894099505A9FDF7F4
:102BD800B3FE0AB070BD124A9342FAD1114B0E48A7
:102BE800002103911A6C42F008021A641A6C02F070
:102BF80008020392039A04911A6B42F001021A63C5
:102C08001B6B03F001030493049B03230593022326
:102C18000693099305A9DAE7000002400004024080
:102C2800000C0040003802401FB50368214A934257
:102C380015D10022204B0192196C41F00201196450
:102C48001B6C03F0020301931D201146019BFDF745
:102C580005FE1D20FDF736FE05B05DF804FB174A9A
:102C6800934211D10022144B0292596C41F4003165
:102C780059645B6C03F40033029319201146029BDC
:102C8800FDF7ECFD1920E5E70D4A9342E4D1002257
:102C9800094B0392596C41F4802159645B6C03F42D
:102CA800802303931A201146039BFDF7D7FD1A20B2
:102CB800D0E700BF00040040003802400044014053
:102CC8000048014010B5044686B01422002101A82E
:102CD80000F022F922680D4B9A4214D10023009388
:102CE8000B4B0C481A6B42F004021A631B6B03F07F
:102CF80004030093009BC023019301A902230293BC
:102D08000593FDF719FE06B010BD00BF0004004092
:102D1800003802400008024010B58EB01022002191
:102D280003A800F0F9F800241C220DEB020021464C
:102D38000194029400F0F0F82148224A8460232389
:102D480080E80C006323C36004618461FFF79CF88A
:102D580008B1FFF711FE4FF4805303A918480393F5
:102D6800FFF7AAF908B1FFF707FE1548FFF7A6F81D
:102D780008B1FFF701FE002401A91148019402944B
:102D8800FFF72EFA08B1FFF7F7FD6023002207A925
:102D98000B480793089409940B94FFF721F908B19D
:102DA800FFF7EAFD042207A90548FFF719F908B15A
:102DB800FFF7E2FD0248FFF785FF0EB010BD00BF28
:102DC800480100200004004008B50B480B4B4FF4A5
:102DD800165E80E808400C2200238360C36003610C
:102DE80042618361C361FFF7B3FA18B1BDE80840D7
:102DF800FFF7C2BD08BD00BF080200200010014057
:102E080010B5044688B01422002103A800F084F805
:102E18002268184B9A422BD103F59433002401946D
:102E28005A6C154842F010025A645A6C02F01002AB
:102E38000192019A02941A6B42F001021A631B6B09
:102E480003F001030293029B4FF4C0630393022330
:102E580004930323069303A907230793FDF76CFD47
:102E6800252022462146FDF7F9FC2520FDF72AFDFD
:102E780008B010BD0010014000000240DFF834D057
:102E8800002103E00C4B5B58435004310B480C4BBA
:102E980042189A42F6D30B4A02E0002342F8043B58
:102EA800094B9A42F9D3FFF7ADFD00F011F8FFF78F
:102EB8002DFD704700000220802F00080000002030
:102EC8000C0000200C00002048020020FEE7000053
:102ED80070B50D4E0D4CA41BA4100025A54209D1B8
:102EE8000B4E0C4C00F020F8A41BA4100025A542A2
:102EF80005D170BD56F8253098470135EEE756F8EC
:102F0800253098470135F2E7782F0008782F000818
:102F1800782F00087C2F000802440346934200D112
:102F2800704703F8011BF9E7F8B500BFF8BC08BC07
:102F38009E467047F8B500BFF8BC08BC9E4670476F
:102F4800435A455343205357494154210000000038
:102F58000000000000010203040607080900000041
:082F6800000102030400000057
:082F700098D2FF7F0100000070
:042F7800BD0100088F
:042F7C0099010008AF
:0C2F800001000000100000000024F4001C
:0400000508002E853C
:00000001FF
